{
  "contractName": "Election",
  "abi": [
    {
      "constant": true,
      "inputs": [],
      "name": "candidatesCount",
      "outputs": [
        {
          "name": "",
          "type": "uint256"
        }
      ],
      "payable": false,
      "stateMutability": "view",
      "type": "function"
    },
    {
      "constant": true,
      "inputs": [
        {
          "name": "",
          "type": "uint256"
        }
      ],
      "name": "candidates",
      "outputs": [
        {
          "name": "id",
          "type": "uint256"
        },
        {
          "name": "name",
          "type": "string"
        },
        {
          "name": "voteCount",
          "type": "uint256"
        }
      ],
      "payable": false,
      "stateMutability": "view",
      "type": "function"
    },
    {
      "constant": true,
      "inputs": [
        {
          "name": "",
          "type": "address"
        }
      ],
      "name": "voters",
      "outputs": [
        {
          "name": "",
          "type": "bool"
        }
      ],
      "payable": false,
      "stateMutability": "view",
      "type": "function"
    },
    {
      "inputs": [],
      "payable": false,
      "stateMutability": "nonpayable",
      "type": "constructor"
    },
    {
      "anonymous": false,
      "inputs": [
        {
          "indexed": true,
          "name": "_candidateId",
          "type": "uint256"
        }
      ],
      "name": "votedEvent",
      "type": "event"
    },
    {
      "constant": false,
      "inputs": [
        {
          "name": "_candidateId",
          "type": "uint256"
        }
      ],
      "name": "vote",
      "outputs": [],
      "payable": false,
      "stateMutability": "nonpayable",
      "type": "function"
    }
  ],
  "bytecode": "0x608060405234801561001057600080fd5b5061005e6040805190810160405280600b81526020017f43616e64696461746520310000000000000000000000000000000000000000008152506100b0640100000000026401000000009004565b6100ab6040805190810160405280600b81526020017f43616e64696461746520320000000000000000000000000000000000000000008152506100b0640100000000026401000000009004565b6101d2565b6002600081548092919060010191905055506060604051908101604052806002548152602001828152602001600081525060016000600254815260200190815260200160002060008201518160000155602082015181600101908051906020019061011c92919061012d565b506040820151816002015590505050565b828054600181600116156101000203166002900490600052602060002090601f016020900481019282601f1061016e57805160ff191683800117855561019c565b8280016001018555821561019c579182015b8281111561019b578251825591602001919060010190610180565b5b5090506101a991906101ad565b5090565b6101cf91905b808211156101cb5760008160009055506001016101b3565b5090565b90565b610404806101e16000396000f300608060405260043610610062576000357c0100000000000000000000000000000000000000000000000000000000900463ffffffff1680630121b93f146100675780632d35a8a2146100945780633477ee2e146100bf578063a3ec138d14610173575b600080fd5b34801561007357600080fd5b50610092600480360381019080803590602001909291905050506101ce565b005b3480156100a057600080fd5b506100a96102f0565b6040518082815260200191505060405180910390f35b3480156100cb57600080fd5b506100ea600480360381019080803590602001909291905050506102f6565b6040518084815260200180602001838152602001828103825284818151815260200191508051906020019080838360005b8381101561013657808201518184015260208101905061011b565b50505050905090810190601f1680156101635780820380516001836020036101000a031916815260200191505b5094505050505060405180910390f35b34801561017f57600080fd5b506101b4600480360381019080803573ffffffffffffffffffffffffffffffffffffffff1690602001909291905050506103b8565b604051808215151515815260200191505060405180910390f35b6000803373ffffffffffffffffffffffffffffffffffffffff1673ffffffffffffffffffffffffffffffffffffffff16815260200190815260200160002060009054906101000a900460ff1615151561022657600080fd5b60008111801561023857506002548111155b151561024357600080fd5b60016000803373ffffffffffffffffffffffffffffffffffffffff1673ffffffffffffffffffffffffffffffffffffffff16815260200190815260200160002060006101000a81548160ff0219169083151502179055506001600082815260200190815260200160002060020160008154809291906001019190505550807ffff3c900d938d21d0990d786e819f29b8d05c1ef587b462b939609625b684b1660405160405180910390a250565b60025481565b6001602052806000526040600020600091509050806000015490806001018054600181600116156101000203166002900480601f0160208091040260200160405190810160405280929190818152602001828054600181600116156101000203166002900480156103a85780601f1061037d576101008083540402835291602001916103a8565b820191906000526020600020905b81548152906001019060200180831161038b57829003601f168201915b5050505050908060020154905083565b60006020528060005260406000206000915054906101000a900460ff16815600a165627a7a72305820dd4d1b698b03b189d147da09050069e2cdd214db4642a07ea2368f35a44330210029",
  "source": "pragma solidity ^0.4.23;\n\ncontract Election {\n    // Model a Candidate\n    struct Candidate {\n        uint id;\n        string name;\n        uint voteCount;\n    }\n\n    // Store accounts that have voted\n    mapping(address => bool) public voters;\n    // Store Candidates\n    // Fetch Candidate\n    mapping(uint => Candidate) public candidates;\n    // Store Candidates Count\n    uint public candidatesCount;\n\n    // voted event\n    event votedEvent (\n        uint indexed _candidateId\n    );\n\n    constructor () public {\n        addCandidate(\"Candidate 1\");\n        addCandidate(\"Candidate 2\");\n    }\n\n    function addCandidate (string _name) private {\n        candidatesCount ++;\n        candidates[candidatesCount] = Candidate(candidatesCount, _name, 0);\n    }\n\n    function vote (uint _candidateId) public {\n        // require that they haven't voted before\n        require(!voters[msg.sender]);\n\n        // require a valid candidate\n        require(_candidateId > 0 && _candidateId <= candidatesCount);\n\n        // record that voter has voted\n        voters[msg.sender] = true;\n\n        // update candidate vote Count\n        candidates[_candidateId].voteCount ++;\n\n        // trigger voted event\n        emit votedEvent(_candidateId);\n    }\n}\n",
  "sourcePath": "/Users/herambadash/voting_contract/contracts/voting.sol",
  "compiler": {
    "name": "solc",
    "version": "0.4.24+commit.e67f0147.Emscripten.clang"
  },
  "schemaVersion": "2.0.1",
  "updatedAt": "2018-10-09T10:39:13.078Z"
}